:020000040800F2
:100000000000022071210008F11E0008FF1E0008F8
:10001000051F00080B1F0008111F0008000000004A
:10002000000000000000000000000000171F000892
:10003000251F000800000000331F0008411F0008B2
:10004000C1210008C1210008C1210008C121000808
:10005000C1210008C1210008C1210008C1210008F8
:10006000C1210008C1210008C1210008C1210008E8
:10007000C1210008C1210008C1210008C1210008D8
:10008000C1210008C1210008C1210008C1210008C8
:10009000C1210008C1210008C1210008C1210008B8
:1000A000C1210008C1210008C1210008C1210008A8
:1000B000C1210008C1210008C1210008C121000898
:1000C000C1210008C1210008C1210008C121000888
:1000D000C12100084D1F0008651F0008C12100084C
:1000E000C1210008C1210008C1210008C121000868
:1000F000C1210008C1210008C1210008C121000858
:10010000C1210008C1210008C1210008C121000847
:10011000C1210008C1210008791F0008C121000881
:10012000C1210008C1210008C1210008C121000827
:10013000C12100080000000000000000C1210008EB
:10014000C1210008C1210008C1210008C121000807
:10015000C1210008C1210008C1210008C1210008F7
:10016000C1210008C1210008C1210008C1210008E7
:10017000C1210008C1210008C121000800000000C1
:1001800000000000C1210008000000000000000085
:10019000C12100080000000000000000C12100088B
:1001A000000000000000000000000000C121000865
:1001B000C1210008C1210008C1210008C121000897
:0401C000C121000851
:1001D00010B5054C237833B9044B13B10448AFF381
:1001E00000800123237010BDE40100200000000006
:1001F0008084000808B5034B1BB103490348AFF3E3
:10020000008008BD00000000E80100208084000894
:10021000034613F8012B002AFBD1181A0138704746
:1002200001F0FF01102A2BDB10F0070F08D010F8A7
:10023000013B013A8B422DD010F0070F42B3F6D1AB
:10024000F0B441EA012141EA014122F007047FF0C4
:1002500000070023F0E80256083C85EA010586EA1B
:10026000010685FA47F5A3FA87F586FA47F6A5FA57
:1002700087F68EB9EED1F0BC01F0FF0102F0070263
:1002800032B110F8013B013A83EA010313B1F8D10E
:100290000020704701387047002D06BF35460338EF
:1002A000073815F0010F07D1013015F4807F02BF28
:1002B000013015F4C03F0130F0BC0138704700BF79
:1002C00081F0004102E000BF83F0004330B54FEA07
:1002D00041044FEA430594EA050F08BF90EA020F74
:1002E0001FBF54EA000C55EA020C7FEA645C7FEA07
:1002F000655C00F0E2804FEA5454D4EB5555B8BF2A
:100300006D420CDD2C4480EA020281EA030382EA9A
:10031000000083EA010180EA020281EA0303362D2C
:1003200088BF30BD11F0004F4FEA01314FF4801CFF
:100330004CEA113102D0404261EB410113F0004F11
:100340004FEA03334CEA133302D0524263EB4303C8
:1003500094EA050F00F0A780A4F10104D5F1200E66
:100360000DDB02FA0EFC22FA05F2801841F10001C1
:1003700003FA0EF2801843FA05F359410EE0A5F195
:1003800020050EF1200E012A03FA0EFC28BF4CF0C6
:10039000020C43FA05F3C01851EBE37101F000457C
:1003A00007D54FF0000EDCF1000C7EEB00006EEB89
:1003B0000101B1F5801F1BD3B1F5001F0CD3490813
:1003C0005FEA30004FEA3C0C04F101044FEA44526A
:1003D00012F5800F80F09A80BCF1004F08BF5FEAF1
:1003E000500C50F1000041EB045141EA050130BDD1
:1003F0005FEA4C0C404141EB0101013C28BFB1F5E3
:10040000801FE9D291F0000F04BF01460020B1FA2D
:1004100081F308BF2033A3F10B03B3F120020CDA00
:100420000C3208DD02F1140CC2F10C0201FA0CF0DE
:1004300021FA02F10CE002F11402D8BFC2F1200C43
:1004400001FA02F120FA0CFCDCBF41EA0C019040F9
:10045000E41AA2BF01EB0451294330BD6FEA040442
:100460001F3C1CDA0C340EDC04F11404C4F120022D
:1004700020FA04F001FA02F340EA030021FA04F33F
:1004800045EA030130BDC4F10C04C4F1200220FA96
:1004900002F001FA04F340EA0300294630BD21FAD4
:1004A00004F0294630BD94F0000F83F4801306BF9A
:1004B00081F480110134013D4EE77FEA645C18BF8E
:1004C0007FEA655C29D094EA050F08BF90EA020F25
:1004D00005D054EA000C04BF1946104630BD91EA1D
:1004E000030F1EBF0021002030BD5FEA545C05D120
:1004F0004000494128BF41F0004130BD14F580045F
:100500003CBF01F5801130BD01F0004545F0FE41D2
:1005100041F470014FF0000030BD7FEA645C1ABF07
:10052000194610467FEA655C1CBF0B46024650EA3E
:10053000013406BF52EA033591EA030F41F400216A
:1005400030BD00BF90F0000F04BF0021704730B5F0
:100550004FF4806404F132044FF000054FF00001C5
:1005600050E700BF90F0000F04BF0021704730B586
:100570004FF4806404F1320410F0004548BF40425B
:100580004FF000013EE700BF42004FEAE2014FEAB0
:1005900031014FEA02701FBF12F07F4393F07F4F8B
:1005A00081F06051704732F07F4208BF704793F08E
:1005B0007F4F04BF41F40021704730B54FF46074A1
:1005C00001F0004521F000411CE700BF50EA0102A4
:1005D00008BF704730B54FF000050AE050EA01024D
:1005E00008BF704730B511F0004502D5404261EBBD
:1005F00041014FF4806404F132045FEA915C3FF4FE
:10060000D8AE4FF003025FEADC0C18BF03325FEA9A
:10061000DC0C18BF033202EBDC02C2F1200300FA4B
:1006200003FC20FA02F001FA03FE40EA0E0021FA70
:1006300002F11444BDE600BF70B54FF0FF0C4CF45E
:10064000E06C1CEA11541DBF1CEA135594EA0C0F10
:1006500095EA0C0F00F0DEF82C4481EA030621EA4B
:100660004C5123EA4C5350EA013518BF52EA033586
:1006700041F4801143F4801338D0A0FB02CE4FF038
:100680000005E1FB02E506F00042E0FB03E54FF068
:100690000006E1FB03569CF0000F18BF4EF0010E60
:1006A000A4F1FF04B6F5007F64F5407404D25FEA5C
:1006B0004E0E6D4146EB060642EAC62141EA55510F
:1006C0004FEAC52040EA5E504FEACE2EB4F1FD0C51
:1006D00088BFBCF5E06F1ED8BEF1004F08BF5FEACF
:1006E000500E50F1000041EB045170BD06F0004681
:1006F00046EA010140EA020081EA0301B4EB5C042E
:10070000C2BFD4EB0C0541EA045170BD41F4801125
:100710004FF0000E013C00F3AB8014F1360FDEBF4A
:10072000002001F0004170BDC4F10004203C35DA26
:100730000C341BDC04F11404C4F1200500FA05F3A9
:1007400020FA04F001FA05F240EA020001F000424A
:1007500021F0004110EBD37021FA04F642EB0601C0
:100760005EEA430E08BF20EAD37070BDC4F10C04EA
:10077000C4F1200500FA04F320FA05F001FA04F2AE
:1007800040EA020001F0004110EBD37041F100019A
:100790005EEA430E08BF20EAD37070BDC4F12005A5
:1007A00000FA05F24EEA020E20FA04F301FA05F20D
:1007B00043EA020321FA04F001F0004121FA04F2B5
:1007C00020EA020000EBD3705EEA430E08BF20EA85
:1007D000D37070BD94F0000F0FD101F000464000BF
:1007E00041EB010111F4801F08BF013CF7D041EA41
:1007F000060195F0000F18BF704703F00046520045
:1008000043EB030313F4801F08BF013DF7D043EA15
:100810000603704794EA0C0F0CEA135518BF95EACB
:100820000C0F0CD050EA410618BF52EA4306D1D152
:1008300081EA030101F000414FF0000070BD50EA71
:10084000410606BF1046194652EA430619D094EAFB
:100850000C0F02D150EA013613D195EA0C0F05D1E5
:1008600052EA03361CBF104619460AD181EA030139
:1008700001F0004141F0FE4141F470014FF00000F1
:1008800070BD41F0FE4141F4780170BD70B54FF08C
:10089000FF0C4CF4E06C1CEA11541DBF1CEA13550C
:1008A00094EA0C0F95EA0C0F00F0A7F8A4EB0504EE
:1008B00081EA030E52EA03354FEA013100F08880E5
:1008C0004FEA03334FF0805545EA131343EA1263AE
:1008D0004FEA022245EA111545EA10654FEA002663
:1008E0000EF000419D4208BF964244F1FD0404F51C
:1008F000407402D25B084FEA3202B61A65EB030578
:100900005B084FEA32024FF480104FF4002CB6EB34
:10091000020E75EB030E22BFB61A754640EA0C00B4
:100920005B084FEA3202B6EB020E75EB030E22BFF4
:10093000B61A754640EA5C005B084FEA3202B6EB35
:10094000020E75EB030E22BFB61A754640EA9C00F4
:100950005B084FEA3202B6EB020E75EB030E22BFC4
:10096000B61A754640EADC0055EA060E18D04FEA82
:10097000051545EA16754FEA06164FEAC30343EA22
:1009800052734FEAC2025FEA1C1CC0D111F4801FEF
:100990000BD141EA00014FF000004FF0004CB6E7E8
:1009A00011F4801F04BF01430020B4F1FD0C88BF87
:1009B000BCF5E06F3FF6AFAEB5EB030C04BFB6EB92
:1009C000020C5FEA500C50F1000041EB045170BD85
:1009D0000EF0004E4EEA113114EB5C04C2BFD4EBB2
:1009E0000C0541EA045170BD41F480114FF0000E36
:1009F000013C90E645EA060E8DE60CEA135594EAB2
:100A00000C0F08BF95EA0C0F3FF43BAF94EA0C0FB4
:100A10000AD150EA01347FF434AF95EA0C0F7FF429
:100A200025AF104619462CE795EA0C0F06D152EA7D
:100A300003353FF4FDAE1046194622E750EA410661
:100A400018BF52EA43067FF4C5AE50EA41047FF472
:100A50000DAF52EA43057FF4EBAE12E74FF0FF3CD7
:100A600006E000BF4FF0010C02E000BF4FF0010CA8
:100A70004DF804CD4FEA410C7FEA6C5C4FEA430C21
:100A800018BF7FEA6C5C1BD001B050EA410C0CBF70
:100A900052EA430C91EA030F02BF90EA020F0020D2
:100AA000704710F1000F91EA030F58BF994208BF39
:100AB00090422CBFD8176FEAE37040F001007047F6
:100AC0004FEA410C7FEA6C5C02D150EA013C07D14D
:100AD0004FEA430C7FEA6C5CD6D152EA033CD3D098
:100AE0005DF8040B704700BF8446104662468C4692
:100AF0001946634600E000BF01B5FFF7B7FF0028C5
:100B000048BF10F1000F01BD4DF808EDFFF7F4FFED
:100B10000CBF012000205DF808FB00BF4DF808ED78
:100B2000FFF7EAFF34BF012000205DF808FB00BF9B
:100B30004DF808EDFFF7E0FF94BF012000205DF8BD
:100B400008FB00BF4DF808EDFFF7CEFF94BF012072
:100B500000205DF808FB00BF4DF808EDFFF7C4FF6B
:100B600034BF012000205DF808FB00BF4FEA410CB4
:100B70007FEA6C5C02D150EA013C0AD14FEA430C97
:100B80007FEA6C5C02D152EA033C02D14FF00000D4
:100B900070474FF0010070474FEA410212F5001212
:100BA00015D211D56FF47873B3EB625212D94FEAB4
:100BB000C12343F0004343EA505311F0004F23FA9E
:100BC00002F018BF404270474FF00000704750EAF3
:100BD000013005D111F0004008BF6FF000407047B0
:100BE0004FF00000704700BF53B94AB9002908BF51
:100BF00000281CBF4FF0FF314FF0FF3000F074B9F8
:100C0000ADF1080C6DE904CE00F006F8DDF804E063
:100C1000DDE9022304B070472DE9F047089D044642
:100C20008E46002B4DD18A42944669D9B2FA82F29F
:100C300052B101FA02F3C2F1200120FA01F10CFADB
:100C400002FC41EA030E94404FEA1C48210CBEFB13
:100C5000F8F61FFA8CF708FB16E341EA034306FB9C
:100C600007F199420AD91CEB030306F1FF3080F02B
:100C70001F81994240F21C81023E63445B1AA4B278
:100C8000B3FBF8F008FB103344EA034400FB07F71A
:100C9000A7420AD91CEB040400F1FF3380F00A815B
:100CA000A74240F207816444023840EA0640E41B50
:100CB00000261DB1D4400023C5E900433146BDE8FC
:100CC000F0878B4209D9002D00F0EF800026C5E99E
:100CD000000130463146BDE8F087B3FA83F6002EB6
:100CE0004AD18B4202D3824200F2F980841A61EB2E
:100CF000030301209E46002DE0D0C5E9004EDDE74C
:100D000002B9FFDEB2FA82F2002A40F09280A1EB33
:100D10000C014FEA1C471FFA8CFE0126200CB1FB88
:100D2000F7F307FB131140EA01410EFB03F0884281
:100D300008D91CEB010103F1FF3802D2884200F20E
:100D4000CB804346091AA4B2B1FBF7F007FB1011A0
:100D500044EA01440EFB00FEA64508D91CEB04043E
:100D600000F1FF3102D2A64500F2BB800846A4EB99
:100D70000E0440EA03409CE7C6F12007B34022FA84
:100D800007FC4CEA030C20FA07F401FA06F31C43B3
:100D9000F9404FEA1C4900FA06F3B1FBF9F8200CC0
:100DA0001FFA8CFE09FB181140EA014108FB0EF006
:100DB000884202FA06F20BD91CEB010108F1FF3A56
:100DC00080F08880884240F28580A8F10208614462
:100DD000091AA4B2B1FBF9F009FB101144EA014170
:100DE00000FB0EFE8E4508D91CEB010100F1FF341B
:100DF0006CD28E456AD90238614440EA0840A0FBB3
:100E00000294A1EB0E01A142C846A64656D353D088
:100E10005DB1B3EB080261EB0E0101FA07F722FAAC
:100E200006F3F1401F43C5E9007100263146BDE8D5
:100E3000F087C2F12003D8400CFA02FC21FA03F338
:100E4000914001434FEA1C471FFA8CFEB3FBF7F0B9
:100E500007FB10360B0C43EA064300FB0EF69E42DE
:100E600004FA02F408D91CEB030300F1FF382FD277
:100E70009E422DD9023863449B1B89B2B3FBF7F61F
:100E800007FB163341EA034106FB0EF38B4208D9F8
:100E90001CEB010106F1FF3816D28B4214D9023E39
:100EA0006144C91A46EA004638E72E46284605E757
:100EB0000646E3E61846F8E64B45A9D2B9EB020828
:100EC00064EB0C0E0138A3E74646EAE7204694E7B8
:100ED0004046D1E7D0467BE7023B614432E73046EB
:100EE00009E76444023842E7704700BF80B400AFAE
:100EF0000D4B0E4A1A600E4B0E4A1A600E4B1B68C1
:100F00005A690D4B1B6842F001025A610A4B1B687B
:100F1000DA68094B1B6842F02002DA6000BFBD4668
:100F20005DF8047B704700BF18020020000200201B
:100F30001C0200200C020020E802002080B485B0D2
:100F400000AF03463960FB713B685B68013303F017
:100F50000103FB603B689A68FB689A4207D03B68D4
:100F60005B683A68F979D154FA683B685A6000BF07
:100F70001437BD465DF8047B7047000080B483B031
:100F800000AF114B1B685A680F4B1B689B689A4255
:100F900002D14FF0FF3310E00B4B1A680A4B1B686D
:100FA0009B68D35CFB71084B1B689B685A1C064B03
:100FB0001B6802F001029A60FB7918460C37BD46A7
:100FC0005DF8047B704700BF1802002080B485B034
:100FD00000AF78607B68002B21DB144B1B685B68DB
:100FE000013303F00103FB6000BF104B1B689A68DC
:100FF000FB689A42F9D00D4B1A680C4B1B685B6872
:101000007968C9B2D154094B1B68FA685A60084B19
:101010001B68DA68064B1B6842F08002DA6000BF8A
:101020001437BD465DF8047B704700BF1C020020EA
:10103000E802002080B400AF094B1B685B689AB2DD
:10104000074B1B689B689BB2D31A9BB202339BB2BF
:1010500003F001031846BD465DF8047B704700BFEE
:101060001802002080B400AF0A4B1B685A68094B75
:101070001B689B689A4202D14FF0FF3305E0054B95
:101080001A68044B1B689B68D35C1846BD465DF824
:10109000047B70471802002080B586B000AF7860EE
:1010A000396000237B617868FFF7B2F80346FB6084
:1010B00000233B6100BFFFF7BDFF0346002BFAD0C2
:1010C0001BE02E4B19682D4B1B689A683B693868EA
:1010D00003448A5C1A70294B1B689B685A1C274B77
:1010E0001B6802F001029A603B6901333B6100BF5B
:1010F000FFF7A0FF0346002BFAD0FFF7B3FF01462E
:101100007B697A6813441B789942DAD119E07B69CC
:1011100001337B61FFF732FF01463B695A1C3A619C
:101120001A463B681344CAB21A707A69FB689A423D
:1011300001D101231DE000BFFFF77CFF0346002B18
:10114000FAD0FFF78FFF01467B697A6813441B785A
:101150009942DCD07A69FB689A4202D000237B6115
:10116000A8E77A69FB689A4201D1012301E04FF0B8
:10117000FF3318461837BD4680BD00BF1802002057
:1011800080B584B000AF78600023FB607868FFF71B
:101190003FF80346BB6000BFFFF74CFF0346002B40
:1011A000FAD008E01F4B1B689B685A1C1D4B1B683C
:1011B00002F001029A60FFF755FF0146FB687A686A
:1011C00013441B789942EDD110E0FB680133FB60BA
:1011D000FFF7D4FEFA68BB689A4201D101231DE0F3
:1011E00000BFFFF727FF0346002BFAD0FFF73AFFB7
:1011F0000146FB687A6813441B789942E5D0FA6887
:10120000BB689A4202D00023FB60C4E7FA68BB685F
:101210009A4201D1012301E04FF0FF331846103705
:10122000BD4680BD1802002080B586B000AF786052
:101230007B681B681B687B617B681B68DB683B61A4
:101240007B6903F02003002B13D03B6903F02003DC
:10125000002B0ED07B681B681B687B681B685B6873
:10126000FB731C4B1A68FB7B11461846FFF766FEA2
:101270002CE07B6903F08003002B27D03B6903F04F
:101280008003002B22D0144B5A68134B9B689A4260
:1012900008D17B681B68DA687B681B6822F08002D3
:1012A000DA6012E00C4B9B680B4AD35CBB730A4BB1
:1012B0009B68013303F00103074A93607B681B6856
:1012C0001B687B681B68BA7B5A6000BF1837BD4635
:1012D00080BD00BF180200200C02002080B500AFC6
:1012E000104B00221A70FFF7A5FE0346002B15D005
:1012F000FFF744FE0346DAB20B4B1A700B48FFF7B8
:101300003FFF0346012B09D109490A48FFF7C4FEF4
:10131000094B00221A60064800F04AF801231846DB
:1013200080BD00BFE3030020A803002098840008CC
:10133000E00300209C8400080000002080B582B0FB
:1013400000AF7860144802F06EFC00F0E5F8F0EEB3
:10135000407A9FED127AF4EEC77AF1EE10FAF4DBE0
:10136000642301220E490F4803F039FC0120FFF7E6
:101370002DFE012220210C4801F04CFE0B4B0A22CD
:101380001A70054802F073FC00F0A0F8002318461C
:101390000837BD4680BD00BFA80200200000FA4407
:1013A0009C8400086803002000000240E103002044
:1013B00080B582B000AF78607B681B78012B08D1C4
:1013C000174B05221A70164B1B781846FFF7B6FF0D
:1013D00021E07B681B78022B08D1114B0A221A707E
:1013E0000F4B1B781846FFF7A9FF14E07B681B78AA
:1013F000032B08D10A4B14221A70094B1B7818468C
:10140000FFF79CFF07E0064B00221A70044B1B7885
:101410001846FFF793FF00BF0837BD4680BD00BFE9
:10142000E403002080B500AF0F4B1A680F4B1B6818
:101430005A63012204210E4801F0ECFD0022022132
:101440000C4801F0E7FD01220821094801F0E2FD06
:1014500000228021074801F0DDFD034B1B680133AA
:10146000014A136000BF80BD040000206802002014
:10147000000802400000024080B500AF0F4B1A6820
:101480000F4B1B685A63002204210E4801F0C2FD75
:10149000012202210C4801F0BDFD0022082109486B
:1014A00001F0B8FD01228021074801F0B3FD034B94
:1014B0001B68013B014A136000BF80BD040000208F
:1014C00068020020000802400000024080B500AF22
:1014D000002204210D4801F09DFD002202210C484C
:1014E00001F098FD00220821084801F093FD002238
:1014F0008021074801F08EFD4FF4FA6000F0D4FE21
:101500000021044802F052FC00BF80BD00080240E8
:10151000000002406802002080B500AF174B002297
:101520001A70174800F028FF6421154800F0EAFF00
:10153000134801F06BF807EE900AF8EE677A114B4A
:10154000C3ED007A0F4B1B681846FFF71DF80246E3
:101550000B460D490D4804F019FD0C48FEF758FEE6
:1015600003469AB264230949094803F038FB054B46
:101570001B6807EE903AB0EE670A80BDE2030020D8
:1015800020020020E8030020A0840008AC03002013
:101590002803002080B500AF00F014FE00F02CF806
:1015A00000F032FA00F0DCF900F0B0F900F078F960
:1015B00000F084F800F0D4F800F0FCF9FFF796FC96
:1015C0000B4802F00CFB0021094802F0B1FBFFF7C9
:1015D00085FE0346002B02D0064B01221A7005201F
:1015E000FFF7ACFE0346002BF1D1002004F024F8F5
:1015F00068020020E303002080B594B000AF07F13B
:101600001C0334220021184604F04EF807F10803A9
:1016100000221A605A609A60DA601A6100237B60C7
:10162000244B1B6C234A43F080531364214B1B6CE7
:1016300003F080537B607B6800233B601E4B1B687C
:1016400023F440431C4A43F4804313601A4B1B6845
:1016500003F440433B603B680223FB610123BB6210
:101660001023FB6200237B6307F11C03184602F082
:1016700031F80346002B01D000F06AFA0F23BB605B
:101680000023FB6000233B614FF4A0537B614FF4C8
:101690008053BB6107F108030021184601F0D4FC18
:1016A0000346002B01D000F053FA00BF5037BD466F
:1016B00080BD00BF003802400070004080B584B09B
:1016C00000AF3B4600221A605A609A60DA60214BF4
:1016D000214A1A601F4B00225A601E4B00229A605A
:1016E0001C4B00221A611B4B01221A76194B002257
:1016F00083F82020174B0022DA62164B174A9A62B1
:10170000144B0022DA60134B0122DA61114B0022E4
:1017100083F830200F4B01225A610E4800F0E8FD9B
:101720000346002B01D000F013FA00233B60012395
:101730007B600023BB603B461946064800F074FFFF
:101740000346002B01D000F003FA00BF1037BD465E
:1017500080BD00BF20020020002001400100000FDA
:1017600080B596B000AF07F1480300221A605A60B6
:101770009A60DA6007F1400300221A605A6007F1AC
:10178000240300221A605A609A60DA601A615A6172
:101790009A613B1D20220021184603F085FF3E4B35
:1017A0003E4A1A603C4B41F6FF025A603A4B002217
:1017B0009A60394B6322DA60374B00221A61364B4C
:1017C00000225A61344B00229A61334802F0DCF95E
:1017D0000346002B01D000F0BBF94FF48053BB64EB
:1017E00007F1480319462C4802F006FD0346002B7A
:1017F00001D000F0ADF9284802F064FA0346002B4E
:1018000001D000F0A5F900233B6400237B6407F1BD
:1018100040031946204803F0EAF80346002B01D0A4
:1018200000F096F960237B620023BB620023FB6219
:1018300000233B6300237B630023BB630023FB6324
:1018400007F1240300221946134802F00FFC034657
:10185000002B01D000F07CF900237B600023BB60EB
:101860000023FB6000233B6100237B614FF40053A6
:10187000BB6100233B623B1D1946074803F0FCF89F
:101880000346002B01D000F063F9034800F012FA80
:1018900000BF5837BD4680BD6802002000000140EF
:1018A00080B582B000AF3B4600221A605A60154BEB
:1018B000154A1A60134B43F67F625A60114B00229F
:1018C0009A60104B4FF47A72DA600E4B80229A6164
:1018D0000C4802F059F90346002B01D000F038F90A
:1018E00000233B6000237B603B461946054803F01C
:1018F0007EF80346002B01D000F02AF900BF08371C
:10190000BD4680BDA80200200010004080B500AF99
:10191000114B124A1A60104B4FF4E1325A600E4BD1
:1019200000229A600C4B0022DA600B4B00221A61F5
:10193000094B0C225A61084B00229A61064B002287
:10194000DA61054803F0FEF80346002B01D000F0F1
:10195000FFF800BF80BD00BFE8020020001001407A
:1019600080B500AF114B124A1A60104B4FF416525B
:101970005A600E4B00229A600C4B0022DA600B4B2F
:1019800000221A61094B0C225A61084B00229A610D
:10199000064B0022DA61054803F0D4F80346002B19
:1019A00001D000F0D5F800BF80BD00BF28030020A3
:1019B0000044004080B500AF114B124A1A60104B32
:1019C0004FF416525A600E4B00229A600C4B0022C4
:1019D000DA600B4B00221A61094B0C225A61084B4A
:1019E00000229A61064B0022DA61054803F0AAF84A
:1019F0000346002B01D000F0ABF800BF80BD00BF54
:101A0000680300200048004080B58AB000AF07F1AD
:101A1000140300221A605A609A60DA601A61002387
:101A20003B61304B1B6B2F4A43F0800313632D4BFC
:101A30001B6B03F080033B613B690023FB60294B78
:101A40001B6B284A43F004031363264B1B6B03F004
:101A50000403FB60FB680023BB60224B1B6B214A25
:101A600043F0010313631F4B1B6B03F00103BB60C7
:101A7000BB6800237B601B4B1B6B1A4A43F00203BD
:101A80001363184B1B6B03F002037B607B6800221F
:101A90000D21154801F0BEFA0022A221134801F0E1
:101AA000B9FA0D237B610123BB610023FB61002395
:101AB0003B6207F1140319460B4801F017F9A22302
:101AC0007B610123BB610023FB6100233B6207F1C3
:101AD00014031946054801F009F900BF2837BD462F
:101AE00080BD00BF003802400008024000000240F4
:101AF00080B582B000AF7860124B1B780133DAB248
:101B0000104B1A70FFF7B8FC0E4B1B78042B05D94D
:101B10000C4B1B78092B01D8FFF784FC094B1B7871
:101B20000A2B0AD10220FFF751FA64230122064949
:101B3000064803F054F8FFF7C9FC00BF0837BD465C
:101B400080BD00BFE1030020B484000868030020CA
:101B500080B400AF00BFBD465DF8047B7047000055
:101B600080B483B000AF00237B60104B5B6C0F4AE6
:101B700043F4804353640D4B5B6C03F480437B6000
:101B80007B6800233B60094B1B6C084A43F0805381
:101B90001364064B1B6C03F080533B603B6800BF33
:101BA0000C37BD465DF8047B704700BF003802402B
:101BB00080B58AB000AF786007F1140300221A6084
:101BC0005A609A60DA601A617B681B68174A934210
:101BD00027D100233B61164B5B6C154A43F480739D
:101BE0005364134B5B6C03F480733B613B690023CC
:101BF000FB600F4B1B6B0E4A43F0010313630C4B4E
:101C00001B6B03F00103FB60FB6801237B61032373
:101C1000BB610023FB6107F114031946054801F07D
:101C200065F800BF2837BD4680BD00BF00200140D9
:101C3000003802400000024080B584B000AF7860F8
:101C40007B681B68184A93420ED10023FB60174B38
:101C50005B6C164A43F001035364144B5B6C03F056
:101C60000103FB60FB681AE07B681B68104A934223
:101C700015D10023BB600D4B1B6C0C4A43F01003C5
:101C800013640A4B1B6C03F01003BB60BB6800229B
:101C90000021362000F0D1FF362000F0EAFF00BF1F
:101CA0001037BD4680BD00BF000001400038024033
:101CB0000010004080B588B000AF786007F10C03D9
:101CC00000221A605A609A60DA601A617B681B68A9
:101CD000124A93421ED10023BB60114B1B6B104A6A
:101CE00043F0010313630E4B1B6B03F00103BB6056
:101CF000BB684FF48073FB6002233B6100237B6170
:101D00000023BB610123FB6107F10C031946054861
:101D100000F0ECFF00BF2037BD4680BD0000014051
:101D2000003802400000024080B58EB000AF7860FD
:101D300007F1240300221A605A609A60DA601A617F
:101D40007B681B68634A934235D100233B62624B38
:101D50005B6C614A43F0100353645F4B5B6C03F0B0
:101D600010033B623B6A0023FB615B4B1B6B5A4ACF
:101D700043F001031363584B1B6B03F00103FB613A
:101D8000FB694FF4C0637B620223BB620123FB62E9
:101D900003233B6307237B6307F1240319464F4862
:101DA00000F0A4FF00220021252000F046FF25209E
:101DB00000F05FFF89E07B681B68494A934234D199
:101DC0000023BB61444B1B6C434A43F40033136450
:101DD000414B1B6C03F40033BB61BB6900237B6187
:101DE0003D4B1B6B3C4A43F0010313633A4B1B6BA7
:101DF00003F001037B617B690C237B620223BB62DE
:101E00000123FB6203233B6307237B6307F1240366
:101E10001946324800F06AFF00220021262000F017
:101E20000CFF262000F025FF4FE07B681B682D4A41
:101E300093424AD100233B61274B1B6C264A43F453
:101E400080231364244B1B6C03F480233B613B69A8
:101E50000023FB60204B1B6B1F4A43F004031363FA
:101E60001D4B1B6B03F00403FB60FB680023BB608E
:101E7000194B1B6B184A43F002031363164B1B6B81
:101E800003F00203BB60BB6820237B620223BB62BA
:101E90000123FB6203233B6307237B6307F12403D6
:101EA0001946114800F022FF4FF480637B62022341
:101EB000BB620123FB6203233B6307237B6307F1C0
:101EC00024031946094800F011FF00BF3837BD460A
:101ED00080BD00BF001001400038024000000240F9
:101EE0000044004000480040000802400004024056
:101EF00080B400AF00BFBD465DF8047B704780B47E
:101F000000AFFEE780B400AFFEE780B400AFFEE7AD
:101F100080B400AFFEE780B400AF00BFBD465DF8FF
:101F2000047B704780B400AF00BFBD465DF8047B02
:101F3000704780B400AF00BFBD465DF8047B7047BA
:101F400080B500AF00F090F900BF80BD80B500AF54
:101F50000348FFF769F9024802F0DAFE00BF80BDCE
:101F6000E802002080B500AF024802F0D1FE00BFB9
:101F700080BD00BF2803002080B500AF024801F0FB
:101F80006DFF00BF80BD00BFA802002080B400AF7D
:101F900001231846BD465DF8047B704780B582B0CA
:101FA00000AF7860396003F041FB034616221A60E7
:101FB0004FF0FF3318460837BD4680BD80B582B06C
:101FC00000AF78604FF0FF317868FFF7E7FFFEE77A
:101FD00080B586B000AFF860B9607A6000237B619D
:101FE0000AE0AFF300800146BB685A1CBA60CAB26F
:101FF0001A707B6901337B617A697B689A42F0DBF6
:102000007B6818461837BD4680BD80B586B000AFE6
:10201000F860B9607A6000237B6109E0BB685A1CF4
:10202000BA601B781846AFF300807B6901337B618F
:102030007A697B689A42F1DB7B6818461837BD469F
:1020400080BD80B483B000AF78604FF0FF33184696
:102050000C37BD465DF8047B704780B483B000AF99
:10206000786039603B684FF400525A60002318468C
:102070000C37BD465DF8047B704780B483B000AF79
:102080007860012318460C37BD465DF8047B704725
:1020900080B485B000AFF860B9607A60002318465C
:1020A0001437BD465DF8047B7047000080B584B0EE
:1020B00000AF7860114B1B68002B02D10F4B104A08
:1020C0001A600E4B1B68FB600C4B1A687B6813444C
:1020D0006A46934207D903F0A9FA03460C221A6014
:1020E0004FF0FF3306E0054B1A687B681344034A40
:1020F0001360FB6818461037BD4680BDEC03002016
:102100000804002080B400AF164BD3F88830154A7D
:1021100043F47003C2F88830134B1B68124A43F033
:1021200001031360104B00229A600F4B1B680E4A8C
:1021300023F0847323F4803313600B4B0B4A5A60F3
:10214000094B1B68084A23F480231360064B0022C6
:10215000DA60044B4FF000629A6000BFBD465DF844
:10216000047B704700ED00E000380240103000248E
:10217000DFF834D0002103E00C4B5B5843500431AE
:102180000B480C4B42189A42F6D30B4A02E000234C
:1021900042F8043B094B9A42F9D3FFF7B3FF03F02F
:1021A0005FFAFFF7F7F9704700000220BC880008CB
:1021B00000000020E4010020E401002004040020CD
:1021C000FEE7000080B500AF0E4B1B680D4A43F4DC
:1021D000007313600B4B1B680A4A43F4806313605F
:1021E000084B1B68074A43F480731360032000F018
:1021F00019FD002000F008F8FFF7B2FC0023184694
:1022000080BD00BF003C024080B582B000AF786066
:10221000124B1A68124B1B7819464FF47A73B3FBB2
:10222000F1F3B2FBF3F3184600F031FD0346002B47
:1022300001D001230EE07B680F2B0AD800227968B9
:102240004FF0FF3000F0F9FC064A7B681360002372
:1022500000E0012318460837BD4680BD0800002075
:10226000100000200C00002080B400AF064B1B784B
:102270001A46064B1B681344044A136000BFBD4650
:102280005DF8047B704700BF10000020F0030020C1
:1022900080B400AF034B1B681846BD465DF8047B55
:1022A000704700BFF003002080B584B000AF7860B5
:1022B000FFF7EEFFB8607B68FB60FB68B3F1FF3FA0
:1022C00005D00A4B1B781A46FB681344FB6000BF1D
:1022D000FFF7DEFF0246BB68D31AFA689A42F7D8C6
:1022E00000BF00BF1037BD4680BD00BF10000020FA
:1022F00080B584B000AF78600023FB737B68002B4F
:1023000001D1012333E07B681B6C002B09D1786875
:10231000FFF74EFC7B6800225A647B68002283F83A
:102320003C207B681B6C03F01003002B18D17B68EA
:102330001B6C23F4885323F0020343F002027B68F2
:102340001A64786800F0A2FA7B6800225A647B68FD
:102350001B6C23F0030343F001027B681A6401E065
:102360000123FB737B68002283F83C20FB7B18462B
:102370001037BD4680BD000080B485B000AF7860E6
:102380000023BB607B6893F83C30012B01D1022312
:10239000A5E07B68012283F83C207B681B689B6872
:1023A00003F00103012B18D07B681B689A687B68D7
:1023B0001B6842F001029A604C4B1B684C4AA2FB1E
:1023C00003239A0C13465B001344BB6002E0BB6816
:1023D000013BBB60BB68002BF9D17B681B689B6825
:1023E00003F00103012B79D17B681B6C23F4E063BC
:1023F00023F0010343F480727B681A647B681B68D6
:102400005B6803F48063002B07D07B681B6C23F4AC
:10241000405343F480527B681A647B681B6C03F45E
:102420008053B3F5805F06D17B685B6C23F00602B6
:102430007B685A6402E07B6800225A647B68002251
:1024400083F83C202B4BFB607B681B686FF02202FB
:102450001A60FB685B6803F01F03002B2AD17B68BE
:102460001B68254A934215D07B681B68234A934218
:1024700005D1204B5B6803F01F03002B0AD07B685B
:102480001B681F4A934229D11A4B5B6803F0100363
:10249000002B23D17B681B689B6803F04053002B03
:1024A0001CD17B681B689A687B681B6842F080427D
:1024B0009A6013E07B681B680F4A93420ED17B68D9
:1024C0001B689B6803F04053002B07D17B681B6897
:1024D0009A687B681B6842F080429A600023184625
:1024E0001437BD465DF8047B704700BF080000202C
:1024F00083DE1B43002301400020014000210140F6
:102500000022014080B584B000AF786039600023BC
:10251000FB607B681B689B6803F48063B3F5806F86
:1025200013D17B681B689B6803F48073B3F5807FCD
:102530000BD17B681B6C43F020027B681A647B68BC
:10254000002283F83C2001235CE0FFF7A1FEF86045
:102550001AE03B68B3F1FF3F16D03B68002B07D071
:10256000FFF796FE0246FB68D31A3A689A420BD2EE
:102570007B681B6C43F004027B681A647B68002252
:1025800083F83C2003233DE07B681B681B6803F055
:102590000203022BDDD17B681B686FF012021A6008
:1025A0007B681B6C43F400727B681A647B681B6851
:1025B0009B6803F04053002B23D17B681B7E002BCC
:1025C0001FD17B681B68DB6A03F47003002B06D005
:1025D0007B681B689B6803F48063002B11D17B68C8
:1025E0001B6C23F480727B681A647B681B6C03F499
:1025F0008053002B05D17B681B6C43F001027B6884
:102600001A64002318461037BD4680BD80B483B0DD
:1026100000AF78607B681B68DB6C18460C37BD46E2
:102620005DF8047B7047000080B485B000AF78602F
:1026300039600023BB607B6893F83C30012B01D1EB
:10264000022313E17B68012283F83C203B681B686E
:10265000092B25D97B681B68D9683B681B689BB22E
:102660001A4613465B0013441E3B072202FA03F38B
:10267000DA437B681B680A40DA607B681B68D968AC
:102680003B689A683B681B689BB2184603465B0030
:1026900003441E3B9A407B681B680A43DA6022E0D1
:1026A0007B681B6819693B681B689BB21A46134616
:1026B0005B001344072202FA03F3DA437B681B68CA
:1026C0000A401A617B681B6819693B689A683B6815
:1026D0001B689BB2184603465B0003449A407B6824
:1026E0001B680A431A613B685B68062B24D87B6829
:1026F0001B68596B3B685A6813469B001344053BA3
:102700001F2202FA03F3DA437B681B680A405A630C
:102710007B681B68596B3B681B689BB218463B681B
:102720005A6813469B001344053B00FA03F27B688A
:102730001B680A435A634CE03B685B680C2B24D847
:102740007B681B68196B3B685A6813469B001344EF
:10275000233B1F2202FA03F3DA437B681B680A401B
:102760001A637B681B68196B3B681B689BB2184631
:102770003B685A6813469B001344233B00FA03F25C
:102780007B681B680A431A6323E07B681B68D96A6D
:102790003B685A6813469B001344413B1F2202FAD0
:1027A00003F3DA437B681B680A40DA627B681B68C4
:1027B000D96A3B681B689BB218463B685A68134647
:1027C0009B001344413B00FA03F27B681B680A43F9
:1027D000DA62294BFB607B681B68284A93420FD161
:1027E0003B681B68122B0BD1FB685B6823F400026B
:1027F000FB685A60FB685B6843F48002FB685A60C0
:102800007B681B681D4A93422BD13B681B681C4A9E
:10281000934203D03B681B68112B22D1FB685B6895
:1028200023F48002FB685A60FB685B6843F4000293
:10283000FB685A603B681B68114A934211D1114BE7
:102840001B68114AA2FB03239A0C13469B001344F6
:102850005B00BB6002E0BB68013BBB60BB68002B58
:10286000F9D17B68002283F83C20002318461437F6
:10287000BD465DF8047B7047002301400020014005
:10288000120000100800002083DE1B4380B485B0D6
:1028900000AF7860794BFB60FB685B6823F44032E3
:1028A000FB685A60FB685A687B685B681A43FB6880
:1028B0005A607B681B685A687B681B6822F48072C8
:1028C0005A607B681B6859687B681B691A027B68C1
:1028D0001B680A435A607B681B685A687B681B68E0
:1028E00022F040725A607B681B6859687B689A685E
:1028F0007B681B680A435A607B681B689A687B6820
:102900001B6822F400629A607B681B6899687B6888
:10291000DA687B681B680A439A607B689B6A584A3E
:10292000934222D07B681B689A687B681B6822F000
:1029300070629A607B681B6899687B689A6A7B689A
:102940001B680A439A607B681B689A687B681B68EF
:1029500022F040529A607B681B6899687B68DA6A4B
:102960007B681B680A439A600FE07B681B689A6863
:102970007B681B6822F070629A607B681B689A68AB
:102980007B681B6822F040529A607B681B689A68DB
:102990007B681B6822F002029A607B681B6899685A
:1029A0007B681B7E5A007B681B680A439A607B68C1
:1029B00093F82030002B1BD07B681B685A687B681B
:1029C0001B6842F400625A607B681B685A687B6827
:1029D0001B6822F460425A607B681B6859687B68F8
:1029E0005B6A013B5A037B681B680A435A6007E035
:1029F0007B681B685A687B681B6822F400625A6017
:102A00007B681B68DA6A7B681B6822F47002DA62F2
:102A10007B681B68D96A7B68DB69013B1A057B68A8
:102A20001B680A43DA627B681B689A687B681B68CC
:102A300022F400729A607B681B6899687B6893F83F
:102A400030305A027B681B680A439A607B681B68B7
:102A50009A687B681B6822F480629A607B681B68B6
:102A600099687B685B699A027B681B680A439A6075
:102A700000BF1437BD465DF8047B7047002301405A
:102A80000100000F80B485B000AF78607B6803F070
:102A90000703FB600C4BDB68BB60BA684FF6FF03B3
:102AA0001340BB60FB681A02BB68134343F0BF636B
:102AB00043F40033BB60044ABB68D36000BF1437E3
:102AC000BD465DF8047B704700ED00E080B400AFC8
:102AD000044BDB681B0A03F007031846BD465DF88C
:102AE000047B704700ED00E080B483B000AF034684
:102AF000FB7197F90730002B0BDBFB7903F01F020A
:102B0000074997F907305B09012000FA02F241F802
:102B1000232000BF0C37BD465DF8047B704700BF23
:102B200000E100E080B483B000AF03463960FB7180
:102B300097F90730002B0ADB3B68DAB20C4997F9AA
:102B400007301201D2B20B4483F800230AE03B683D
:102B5000DAB20849FB7903F00F03043B1201D2B249
:102B60000B441A7600BF0C37BD465DF8047B7047F6
:102B700000E100E000ED00E080B489B000AFF86053
:102B8000B9607A60FB6803F00703FB61FB69C3F17E
:102B90000703042B28BF0423BB61FB690433062B06
:102BA00002D9FB69033B00E000237B614FF0FF3259
:102BB000BB6902FA03F3DA43BB681A407B699A40A7
:102BC0004FF0FF317B6901FA03F3D9437B680B4077
:102BD000134318462437BD465DF8047B7047000058
:102BE00080B582B000AF78607B68013BB3F1807F35
:102BF00001D301230FE00A4A7B68013B53600F2198
:102C00004FF0FF30FFF78EFF054B00229A60044B18
:102C100007221A60002318460837BD4680BD00BF52
:102C200010E000E080B582B000AF78607868FFF710
:102C300029FF00BF0837BD4680BD80B586B000AF14
:102C40000346B9607A60FB7300237B61FFF73EFFA8
:102C500078617A68B9687869FFF78EFF024697F95C
:102C60000F3011461846FFF75DFF00BF1837BD460D
:102C700080BD80B582B000AF0346FB7197F9073085
:102C80001846FFF731FF00BF0837BD4680BD80B54D
:102C900082B000AF78607868FFF7A2FF034618465D
:102CA0000837BD4680BD80B483B000AF78607B68D4
:102CB00093F83530DBB2022B04D07B6880225A6552
:102CC00001230CE07B68052283F835207B681B68B4
:102CD0001A687B681B6822F001021A6000231846FC
:102CE0000C37BD465DF8047B7047000080B489B0A6
:102CF00000AF7860396000237B6100233B610023D3
:102D0000BB610023FB6165E10122FB6902FA03F369
:102D10007B613B681B687A6913403B613A697B6958
:102D20009A4240F054813B685B68022B03D03B68B9
:102D30005B68122B23D1FB69DA087B68083253F8F1
:102D40002230BB61FB6903F007039B000F2202FAEC
:102D500003F3DB43BA691340BB613B681A69FB6943
:102D600003F007039B0002FA03F3BA691343BB6144
:102D7000FB69DA087B680832B96943F822107B687E
:102D80001B68BB61FB695B00032202FA03F3DB43B0
:102D9000BA691340BB613B685B6803F00302FB69DF
:102DA0005B0002FA03F3BA691343BB617B68BA693B
:102DB0001A603B685B68012B0BD03B685B68022B99
:102DC00007D03B685B68112B03D03B685B68122B14
:102DD00030D17B689B68BB61FB695B00032202FA10
:102DE00003F3DB43BA691340BB613B68DA68FB69F4
:102DF0005B0002FA03F3BA691343BB617B68BA69EB
:102E00009A607B685B68BB610122FB6902FA03F38D
:102E1000DB43BA691340BB613B685B681B0903F085
:102E20000102FB6902FA03F3BA691343BB617B68D1
:102E3000BA695A607B68DB68BB61FB695B0003228F
:102E400002FA03F3DB43BA691340BB613B689A683B
:102E5000FB695B0002FA03F3BA691343BB617B6849
:102E6000BA69DA603B685B6803F08053002B00F0BE
:102E7000AE800023FB605D4B5B6C5C4A43F4804397
:102E800053645A4B5B6C03F48043FB60FB68584A05
:102E9000FB699B08023352F82330BB61FB6903F0E6
:102EA00003039B000F2202FA03F3DB43BA691340CA
:102EB000BB617B684F4A934225D07B684E4A934260
:102EC0001FD07B684D4A934219D07B684C4A93428D
:102ED00013D07B684B4A93420DD07B684A4A934299
:102EE00007D07B68494A934201D106230CE00723AF
:102EF0000AE0052308E0042306E0032304E002239C
:102F000002E0012300E00023FA6902F003029200CC
:102F10009340BA691343BB613549FB699B0802338F
:102F2000BA6941F823203A4B1B68BB613B69DB431C
:102F3000BA691340BB613B685B6803F48033002BC4
:102F400003D0BA693B691343BB61314ABB69136063
:102F50002F4B5B68BB613B69DB43BA691340BB61C4
:102F60003B685B6803F40033002B03D0BA693B690C
:102F70001343BB61264ABB695360254B9B68BB6109
:102F80003B69DB43BA691340BB613B685B6803F490
:102F90008013002B03D0BA693B691343BB611C4A01
:102FA000BB6993601A4BDB68BB613B69DB43BA6961
:102FB0001340BB613B685B6803F40013002B03D034
:102FC000BA693B691343BB61114ABB69D360FB69B2
:102FD0000133FB61FB690F2B7FF696AE00BF00BF8C
:102FE0002437BD465DF8047B704700BF00380240BF
:102FF0000038014000000240000402400008024086
:10300000000C024000100240001402400018024070
:10301000003C014080B483B000AF78600B467B80F9
:1030200013467B707B78002B03D07A887B689A618B
:1030300003E07B881A047B689A6100BF0C37BD46A9
:103040005DF8047B7047000080B584B000AF786005
:1030500039607B68002B01D10123CAE0674B1B68F4
:1030600003F00F033A689A420CD9644B3A68D2B223
:103070001A70624B1B6803F00F033A689A4201D042
:103080000123B6E07B681B6803F00203002B20D00D
:103090007B681B6803F00403002B05D0584B9B682A
:1030A000574A43F4E05393607B681B6803F00803BE
:1030B000002B05D0524B9B68514A43F46043936008
:1030C0004F4B9B6823F0F0027B689B684C4913438D
:1030D0008B607B681B6803F00103002B44D07B6886
:1030E0005B68012B07D1464B1B6803F40033002BB0
:1030F00019D101237DE07B685B68022B03D07B68DC
:103100005B68032B07D13E4B1B6803F00073002B59
:1031100009D101236DE03A4B1B6803F00203002B39
:1031200001D1012365E0364B9B6823F003027B68E5
:103130005B68334913438B60FFF7AAF8F8600AE035
:10314000FFF7A6F80246FB68D31A41F28832934291
:1031500001D903234DE02A4B9B6803F00C027B68E6
:103160005B689B009A42EBD1244B1B6803F00F0372
:103170003A689A420CD2214B3A68D2B21A701F4B6D
:103180001B6803F00F033A689A4201D0012330E034
:103190007B681B6803F00403002B08D0184B9B6866
:1031A00023F4E0527B68DB68154913438B607B682E
:1031B0001B6803F00803002B09D0114B9B6823F414
:1031C00060427B681B69DB000D4913438B6000F094
:1031D00051F802460A4B9B681B0903F00F0309498B
:1031E000CB5C22FA03F3084A13600020FFF70CF8C7
:1031F000002318461037BD4680BD00BF003C02408A
:1032000000380240B88400080800002080B400AFF5
:10321000034B1B681846BD465DF8047B704700BF32
:103220000800002080B500AFFFF7F0FF0246054B15
:103230009B689B0A03F007030349CB5C22FA03F364
:10324000184680BD00380240C884000880B500AF31
:10325000FFF7DCFF0246054B9B685B0B03F007039F
:103260000349CB5C22FA03F3184680BD00380240C4
:10327000C88400082DE9B04FAEB000AF0023C7F8F6
:10328000AC300023C7F8B4300023C7F8A8300023BF
:10329000C7F8A4300023C7F8B030CB4B9B6803F0CD
:1032A0000C030C2B00F2068201A252F823F000BF9F
:1032B000E5320008B5360008B5360008B536000816
:1032C000ED320008B5360008B5360008B5360008FE
:1032D000F5320008B5360008B5360008B5360008E6
:1032E000E5340008B94BC7F8B030E7E1B84BC7F890
:1032F000B030E3E1B44B5B6803F03F03C7F8AC3098
:10330000B14B5B6803F48003002B71D0AE4B5B685C
:103310009B090022C7F89830C7F89C20D7F898304E
:10332000C3F30803C7F890300023C7F89430D7E9F7
:10333000244522462B464FF000004FF00001590172
:1033400041EAD261500102460B462146511A3964C6
:10335000294663EB01037B644FF000024FF000034A
:10336000D7E9108949468B01414643EA91634146BA
:103370008A014146511AB963494663EB0103FB6375
:103380004FF000024FF00003D7E90E894946CB0009
:10339000414643EA51734146CA0010461946034666
:1033A00022469B183B632B460A4642EB03037B6392
:1033B0004FF000024FF00003D7E90C4529464B02BD
:1033C000214643EAD15321464A0210461946D7F80E
:1033D000AC300022C7F88830C7F88C20D7E9222308
:1033E000FDF702FC02460B461346C7F8B43067E00F
:1033F000754B5B689B090022C7F88030C7F88420B2
:10340000D7F88030C3F30803BB670023FB67D7E915
:103410001E4522462B464FF000004FF00001590197
:1034200041EAD261500102460B462146511AB96267
:10343000294663EB0103FB624FF000024FF00003EB
:10344000D7E90A8949468B01414643EA91634146DF
:103450008A014146B2EB010A494663EB010B4FF08A
:1034600000024FF000034FEACB0343EA5A734FEADE
:10347000CA0292469B4623461AEB03033B622B4645
:103480004BEB03037B624FF000024FF00003D7E9E0
:10349000084529468B02214643EA915321468A0278
:1034A00010461946D7F8AC3000223B677A67D7E957
:1034B0001C23FDF799FB02460B461346C7F8B430B0
:1034C000414B5B681B0C03F0030301335B00C7F83F
:1034D000A830D7F8B420D7F8A830B2FBF3F3C7F878
:1034E000B030EBE0384B5B6803F03F03C7F8AC301B
:1034F000354B5B6803F48003002B6BD0324B5B6869
:103500009B090022BB66FA66BB6EC3F308033B66E9
:1035100000237B66D7E9184522462B464FF0000072
:103520004FF00001590141EAD261500102460B46B9
:103530002146511AB961294663EB0103FB614FF043
:1035400000024FF00003D7E906AB59468B01514604
:1035500043EA916351468A015146B2EB010859464C
:1035600063EB01094FF000024FF000034FEAC9037B
:1035700043EA58734FEAC80290469946234618EB2F
:1035800003033B612B4649EB03037B614FF00002D1
:103590004FF00003D7E9044529464B02214643EA90
:1035A000D15321464A0210461946D7F8AC300022C2
:1035B000BB65FA65D7E91623FDF716FB02460B46F5
:1035C0001346C7F8B43065E0003802400024F40028
:1035D00000127A003D4B5B689B0900221846114699
:1035E000C0F308033B6500237B65D7E91489424695
:1035F0004B464FF000004FF00001590141EAD26103
:10360000500102460B464146511AB960494663EBE8
:103610000103FB604FF000024FF00003D7E902AB5B
:1036200059468B01514643EA916351468A015146FE
:10363000541A594663EB01054FF000024FF00003A6
:10364000EB0043EA5473E20014461D464346E31878
:103650003B604B4645EB03037B604FF000024FF0AD
:103660000003D7E9004529468B02214643EA9153DE
:1036700021468A0210461946D7F8AC300022BB64B6
:10368000FA64D7E91223FDF7AFFA02460B46134658
:10369000C7F8B4300D4B5B681B0F03F00703C7F886
:1036A000A430D7F8B420D7F8A430B2FBF3F3C7F8AE
:1036B000B03003E0064BC7F8B03000BFD7F8B030E9
:1036C0001846B837BD46BDE8B08F00BF003802408D
:1036D0000024F40080B586B000AF786000233B6121
:1036E0007B681B6803F00103002B00F08380954B7F
:1036F0009B6803F00C03042B19D0924B9B6803F0DA
:103700000C03082B06D18F4B5B6803F48003B3F5E1
:10371000800F0CD08B4B9B6803F00C030C2B12D149
:10372000884B5B6803F48003B3F5800F0BD1854BA6
:103730001B6803F40033002B5BD07B685B68002BB5
:1037400057D1012316E27B685B68B3F5803F06D151
:103750007C4B1B687B4A43F4803313601DE07B681D
:103760005B68B3F5A02F0CD1764B1B68754A43F408
:1037700080231360734B1B68724A43F480331360D9
:103780000BE0704B1B686F4A23F4803313606D4B62
:103790001B686C4A23F4802313607B685B68002BF2
:1037A00013D0FEF775FD386108E0FEF771FD0246A3
:1037B0003B69D31A642B01D90323DBE1614B1B68FE
:1037C00003F40033002BF0D014E0FEF761FD386104
:1037D00008E0FEF75DFD02463B69D31A642B01D970
:1037E0000323C7E1574B1B6803F40033002BF0D1D0
:1037F00000E000BF7B681B6803F00203002B6FD062
:10380000504B9B6803F00C03002B17D04D4B9B686B
:1038100003F00C03082B05D14A4B5B6803F48003CB
:10382000002B0BD0474B9B6803F00C030C2B1CD1D7
:10383000444B5B6803F48003002B16D1414B1B689B
:1038400003F00203002B05D07B68DB68012B01D05D
:1038500001238FE13B4B1B6823F0F8027B681B6957
:10386000DB00384913430B603AE07B68DB68002BD0
:1038700020D0354B01221A60FEF70AFD386108E0BE
:10388000FEF706FD02463B69D31A022B01D903233A
:1038900070E12C4B1B6803F00203002BF0D0294B86
:1038A0001B6823F0F8027B681B69DB002549134382
:1038B0000B6015E0244B00221A60FEF7E9FC38612A
:1038C00008E0FEF7E5FC02463B69D31A022B01D95A
:1038D00003234FE11B4B1B6803F00203002BF0D1C5
:1038E0007B681B6803F00803002B37D07B685B699B
:1038F000002B16D0154B01221A60FEF7C9FC386167
:1039000008E0FEF7C5FC02463B69D31A022B01D939
:1039100003232FE10B4B5B6F03F00203002BF0D06E
:103920001CE00A4B00221A60FEF7B2FC38610FE07F
:10393000FEF7AEFC02463B69D31A022B08D90323DB
:1039400018E100BF0038024000004742800E4742A5
:103950008A4B5B6F03F00203002BE9D17B681B6885
:1039600003F00403002B00F097800023FB75834BCA
:103970001B6C03F08053002B0FD10023FB607F4BA7
:103980001B6C7E4A43F0805313647C4B1B6C03F02A
:103990008053FB60FB680123FB75794B1B6803F4C4
:1039A0008073002B18D1764B1B68754A43F48073E3
:1039B0001360FEF76DFC386108E0FEF769FC024613
:1039C0003B69D31A022B01D90323D3E06C4B1B684C
:1039D00003F48073002BF0D07B689B68012B06D129
:1039E000664B1B6F654A43F0010313671CE07B685D
:1039F0009B68052B0CD1614B1B6F604A43F004039D
:103A000013675E4B1B6F5D4A43F0010313670BE0C6
:103A10005A4B1B6F594A23F001031367574B1B6F17
:103A2000564A23F0040313677B689B68002B15D06C
:103A3000FEF72EFC38610AE0FEF72AFC02463B69DD
:103A4000D31A41F28832934201D9032392E04B4BBF
:103A50001B6F03F00203002BEED014E0FEF718FCFE
:103A600038610AE0FEF714FC02463B69D31A41F2C2
:103A70008832934201D903237CE0404B1B6F03F053
:103A80000203002BEED1FB7D012B05D13B4B1B6CC0
:103A90003A4A23F0805313647B689B69002B68D0FB
:103AA000364B9B6803F00C03082B60D07B689B6946
:103AB000022B45D1334B00221A60FEF7E9FB386137
:103AC00008E0FEF7E5FB02463B69D31A022B01D959
:103AD00003234FE0294B1B6803F00073002BF0D148
:103AE0007B68DA697B681B6A1A437B685B6A9B01A7
:103AF0001A437B689B6A5B08013B1B041A437B6883
:103B0000DB6A1B061A437B681B6B1B071B491343AD
:103B10004B601C4B01221A60FEF7BAFB386108E0CB
:103B2000FEF7B6FB02463B69D31A022B01D90323E9
:103B300020E0124B1B6803F00073002BF0D018E05C
:103B4000104B00221A60FEF7A3FB386108E0FEF775
:103B50009FFB02463B69D31A022B01D9032309E0DC
:103B6000064B1B6803F00073002BF0D101E001232A
:103B700000E0002318461837BD4680BD00380240DB
:103B8000007000406000474280B582B000AF7860AE
:103B90007B68002B01D101231DE07B6893F83D3049
:103BA000DBB2002B06D17B68002283F83C207868CA
:103BB000FEF742F87B68022283F83D207B681A6892
:103BC0007B6804331946104600F002FC7B68012232
:103BD00083F83D20002318460837BD4680BD80B4D9
:103BE00085B000AF78607B68022283F83D207B6857
:103BF0001B689B6803F00703FB60FB68062B07D07C
:103C00007B681B681A687B681B6842F001021A60B7
:103C10007B68012283F83D20002318461437BD46F7
:103C20005DF8047B704780B485B000AF78607B6836
:103C30001B68DA687B681B6842F00102DA607B6807
:103C40001B689B6803F00703FB60FB68062B07D02B
:103C50007B681B681A687B681B6842F001021A6067
:103C6000002318461437BD465DF8047B704780B4C6
:103C700083B000AF78607B681B68DA687B681B687C
:103C800022F00102DA607B681B681A6A41F21113A4
:103C90001340002B0FD17B681B681A6A40F2444323
:103CA0001340002B07D17B681B681A687B681B6870
:103CB00022F001021A60002318460C37BD465DF859
:103CC000047B704780B582B000AF78607B68002BC2
:103CD00001D101231DE07B6893F83D30DBB2002B5E
:103CE00006D17B68002283F83C20786800F015F844
:103CF0007B68022283F83D207B681A687B68043366
:103D00001946104600F064FB7B68012283F83D20D1
:103D1000002318460837BD4680BD80B483B000AF8D
:103D2000786000BF0C37BD465DF8047B704700002B
:103D300080B584B000AF786039607B681B68012271
:103D40003968184600F02EFE7B681B68154A9342BE
:103D500004D07B681B68144A934201D1012300E020
:103D60000023002B07D07B681B685A6C7B681B689C
:103D700042F400425A647B681B689B6803F00703A7
:103D8000FB60FB68062B07D07B681B681A687B68A2
:103D90001B6842F001021A60002318461037BD4626
:103DA00080BD00BF000001400004014080B582B02A
:103DB00000AF786039607B681B680022396818465C
:103DC00000F0F0FD7B681B68224A934204D07B68B8
:103DD0001B68214A934201D1012300E00023002BFC
:103DE00017D07B681B681A6A41F211131340002B2D
:103DF0000FD17B681B681A6A40F244431340002BC2
:103E000007D17B681B685A6C7B681B6822F40042F0
:103E10005A647B681B681A6A41F211131340002B25
:103E20000FD17B681B681A6A40F244431340002B91
:103E300007D17B681B681A687B681B6822F0010247
:103E40001A607B68012283F83D200023184608375A
:103E5000BD4680BD000001400004014080B582B035
:103E600000AF78607B681B681B6903F00203022BBC
:103E700022D17B681B68DB6803F00203022B1BD195
:103E80007B681B686FF002021A617B6801221A7757
:103E90007B681B689B6903F00303002B03D07868E1
:103EA00000F078FA05E0786800F06AFA786800F0C7
:103EB0007BFA7B6800221A777B681B681B6903F01A
:103EC0000403042B22D17B681B68DB6803F0040326
:103ED000042B1BD17B681B686FF004021A617B689E
:103EE00002221A777B681B689B6903F44073002BDE
:103EF00003D0786800F04EFA05E0786800F040FAE8
:103F0000786800F051FA7B6800221A777B681B689A
:103F10001B6903F00803082B22D17B681B68DB6850
:103F200003F00803082B1BD17B681B686FF00802A5
:103F30001A617B6804221A777B681B68DB6903F0CF
:103F40000303002B03D0786800F024FA05E07868BA
:103F500000F016FA786800F027FA7B6800221A77DA
:103F60007B681B681B6903F01003102B22D17B6850
:103F70001B68DB6803F01003102B1BD17B681B68E8
:103F80006FF010021A617B6808221A777B681B6841
:103F9000DB6903F44073002B03D0786800F0FAF972
:103FA00005E0786800F0ECF9786800F0FDF97B68CE
:103FB00000221A777B681B681B6903F00103012B41
:103FC0000ED17B681B68DB6803F00103012B07D16E
:103FD0007B681B686FF001021A617868FDF788FD45
:103FE0007B681B681B6903F08003802B0ED17B6804
:103FF0001B68DB6803F08003802B07D17B681B689C
:104000006FF080021A61786800F092FD7B681B688F
:104010001B6903F04003402B0ED17B681B68DB68F3
:1040200003F04003402B07D17B681B686FF0400210
:104030001A61786800F0C2F97B681B681B6903F09D
:104040002003202B0ED17B681B68DB6803F0200364
:10405000202B07D17B681B686FF020021A617868FB
:1040600000F05CFD00BF0837BD4680BD80B584B060
:1040700000AFF860B9607A60FB6893F83C30012BC0
:1040800001D10223B4E0FB68012283F83C20FB68E5
:10409000022283F83D207B680C2B00F29F8001A256
:1040A00052F823F0D9400008DD410008DD41000846
:1040B000DD41000819410008DD410008DD4100082C
:1040C000DD4100085B410008DD410008DD410008DA
:1040D000DD4100089B410008FB681B68B968184671
:1040E00000F016FAFB681B689A69FB681B6842F0CF
:1040F00008029A61FB681B689A69FB681B6822F0DA
:1041000004029A61FB681B689969BB681A69FB68BD
:104110001B680A439A6162E0FB681B68B96818462D
:1041200000F066FAFB681B689A69FB681B6842F43A
:1041300000629A61FB681B689A69FB681B6822F43D
:1041400080629A61FB681B689969BB681B691A02E7
:10415000FB681B680A439A6141E0FB681B68B96809
:10416000184600F0BBFAFB681B68DA69FB681B683D
:1041700042F00802DA61FB681B68DA69FB681B68B9
:1041800022F00402DA61FB681B68D969BB681A690E
:10419000FB681B680A43DA6121E0FB681B68B968A9
:1041A000184600F00FFBFB681B68DA69FB681B68A8
:1041B00042F40062DA61FB681B68DA69FB681B681D
:1041C00022F48062DA61FB681B68D969BB681B69ED
:1041D0001A02FB681B680A43DA6100E000BFFB6853
:1041E000012283F83D20FB68002283F83C20002355
:1041F00018461037BD4680BD80B584B000AF7860EA
:1042000039607B6893F83C30012B01D10223B3E085
:104210007B68012283F83C207B68022283F83D20E2
:104220007B681B689B68FB60FB6823F07703FB607F
:10423000FB6823F47F43FB607B681B68FA689A6025
:104240003B681B68B3F5005F3ED0B3F5005F00F23A
:104250008780B3F5805F00F08580B3F5805F7FD8FD
:10426000702B1AD0702B7BD8602B50D0602B77D856
:10427000502B3CD0502B73D8402B58D0402B6FD8AC
:10428000302B64D0302B6BD8202B60D0202B67D8FC
:10429000002B5CD0102B5AD062E07B6818683B681A
:1042A00099683B685A683B68DB6800F05BFB7B6899
:1042B0001B689B68FB60FB6843F07703FB607B68CF
:1042C0001B68FA689A604EE07B6818683B689968DA
:1042D0003B685A683B68DB6800F044FB7B681B68FE
:1042E0009A687B681B6842F480429A603BE07B6876
:1042F00018683B6859683B68DB681A4600F0B8FAF2
:104300007B681B685021184600F011FB2BE07B688E
:1043100018683B6859683B68DB681A4600F0D7FAB2
:104320007B681B686021184600F001FB1BE07B687E
:1043300018683B6859683B68DB681A4600F098FAD1
:104340007B681B684021184600F0F1FA0BE07B689F
:104350001A683B681B681946104600F0E8FA02E04C
:1043600000BF00E000BF7B68012283F83D207B682E
:10437000002283F83C20002318461037BD4680BD3C
:1043800080B483B000AF786000BF0C37BD465DF8E5
:10439000047B704780B483B000AF786000BF0C37F7
:1043A000BD465DF8047B704780B483B000AF786091
:1043B00000BF0C37BD465DF8047B704780B483B006
:1043C00000AF786000BF0C37BD465DF8047B7047D6
:1043D00080B485B000AF786039607B681B68FB6093
:1043E0007B68404A934213D07B68B3F1804F0FD073
:1043F0007B683D4A93420BD07B683C4A934207D08E
:104400007B683B4A934203D07B683A4A934208D187
:10441000FB6823F07003FB603B685B68FA6813433A
:10442000FB607B682F4A93422BD07B68B3F1804FAF
:1044300027D07B682C4A934223D07B682B4A934237
:104440001FD07B682A4A93421BD07B68294A93423B
:1044500017D07B68284A934213D07B68274A93423F
:104460000FD07B68264A93420BD07B68254A934243
:1044700007D07B68244A934203D07B68234A934247
:1044800008D1FB6823F44073FB603B68DB68FA6883
:104490001343FB60FB6823F080023B685B691343B6
:1044A000FB607B68FA681A603B689A687B68DA622E
:1044B0003B681A687B689A627B680A4A934203D019
:1044C0007B680C4A934203D13B681A697B681A6384
:1044D0007B6801225A6100BF1437BD465DF8047B3A
:1044E000704700BF00000140000400400008004089
:1044F000000C004000040140004001400044014025
:104500000048014000180040001C0040002000400E
:1045100080B487B000AF786039607B681B6A23F095
:1045200001027B681A627B681B6A7B617B685B683F
:104530003B617B689B69FB60FB6823F07003FB6059
:10454000FB6823F00303FB603B681B68FA681343B6
:10455000FB607B6923F002037B613B689B687A699F
:1045600013437B617B68204A934203D07B681F4AD8
:1045700093420CD17B6923F008037B613B68DB68C5
:104580007A6913437B617B6923F004037B617B6859
:10459000154A934203D07B68144A934211D13B6978
:1045A00023F480733B613B6923F400733B613B68F8
:1045B0005B693A6913433B613B689B693A69134302
:1045C0003B617B683A695A607B68FA689A613B682C
:1045D0005A687B685A637B687A691A6200BF1C3725
:1045E000BD465DF8047B70470000014000040140B7
:1045F00080B487B000AF786039607B681B6A23F0B5
:1046000010027B681A627B681B6A7B617B685B684F
:104610003B617B689B69FB60FB6823F4E043FB60C4
:10462000FB6823F44073FB603B681B681B02FA685D
:104630001343FB607B6923F020037B613B689B682D
:104640001B017A6913437B617B68224A934203D042
:104650007B68214A93420DD17B6923F080037B6103
:104660003B68DB681B017A6913437B617B6923F03C
:1046700040037B617B68174A934203D07B68164AEC
:10468000934213D13B6923F480633B613B6923F47C
:1046900000633B613B685B699B003A6913433B6184
:1046A0003B689B699B003A6913433B617B683A69AD
:1046B0005A607B68FA689A613B685A687B689A63BB
:1046C0007B687A691A6200BF1C37BD465DF8047BBF
:1046D000704700BF000001400004014080B487B073
:1046E00000AF786039607B681B6A23F480727B6856
:1046F0001A627B681B6A7B617B685B683B617B68D5
:10470000DB69FB60FB6823F07003FB60FB6823F050
:104710000303FB603B681B68FA681343FB607B691B
:1047200023F400737B613B689B681B027A69134327
:104730007B617B68214A934203D07B68204A934285
:104740000DD17B6923F400637B613B68DB681B024E
:104750007A6913437B617B6923F480637B617B68A7
:10476000164A934203D07B68154A934213D13B69A2
:1047700023F480533B613B6923F400533B613B6866
:104780005B691B013A6913433B613B689B691B01F1
:104790003A6913433B617B683A695A607B68FA68FF
:1047A000DA613B685A687B68DA637B687A691A6207
:1047B00000BF1C37BD465DF8047B70470000014018
:1047C0000004014080B487B000AF786039607B6836
:1047D0001B6A23F480527B681A627B681B6A3B6108
:1047E0007B685B687B617B68DB69FB60FB6823F44B
:1047F000E043FB60FB6823F44073FB603B681B688D
:104800001B02FA681343FB603B6923F400533B61CE
:104810003B689B681B033A6913433B617B68124A00
:10482000934203D07B68114A934209D17B6923F4F8
:1048300080437B613B685B699B017A6913437B61C1
:104840007B687A695A607B68FA68DA613B685A6803
:104850007B681A647B683A691A6200BF1C37BD46E0
:104860005DF8047B704700BF000001400004014078
:1048700080B487B000AFF860B9607A60FB681B6AEB
:104880007B61FB681B6A23F00102FB681A62FB680C
:104890009B693B613B6923F0F0033B617B681B0133
:1048A0003A6913433B617B6923F00A037B617A69B0
:1048B000BB6813437B61FB683A699A61FB687A695C
:1048C0001A6200BF1C37BD465DF8047B704780B498
:1048D00087B000AFF860B9607A60FB681B6A23F0AC
:1048E0001002FB681A62FB689B697B61FB681B6AAC
:1048F0003B617B6923F470437B617B681B037A69AE
:1049000013437B613B6923F0A0033B61BB681B0140
:104910003A6913433B61FB687A699A61FB683A69BB
:104920001A6200BF1C37BD465DF8047B704780B437
:1049300085B000AF786039607B689B68FB60FB687E
:1049400023F07003FB603A68FB68134343F00703EE
:10495000FB607B68FA689A6000BF1437BD465DF85B
:10496000047B704780B487B000AFF860B9607A60AC
:104970003B60FB689B687B617B6923F47F437B61C1
:104980003B681A027B681A43BB6813437A69134376
:104990007B61FB687A699A6000BF1C37BD465DF891
:1049A000047B704780B487B000AFF860B9607A606C
:1049B000BB6803F01F03012202FA03F37B61FB686B
:1049C0001A6A7B69DB431A40FB681A62FB681A6A41
:1049D000BB6803F01F03796801FA03F31A43FB680D
:1049E0001A6200BF1C37BD465DF8047B704780B477
:1049F00085B000AF786039607B6893F83C30012B5C
:104A000001D1022332E07B68012283F83C207B68DD
:104A1000022283F83D207B681B685B68FB607B6833
:104A20001B689B68BB60FB6823F07003FB603B68FE
:104A30001B68FA681343FB60BB6823F08003BB600C
:104A40003B685B68BA681343BB607B681B68FA68A5
:104A50005A607B681B68BA689A607B68012283F899
:104A60003D207B68002283F83C2000231846143741
:104A7000BD465DF8047B704780B485B000AF7860B8
:104A800039600023FB607B6893F83C30012B01D137
:104A900002233DE07B68012283F83C20FB6823F081
:104AA000FF023B68DB681343FB60FB6823F4407242
:104AB0003B689B681343FB60FB6823F480623B68A0
:104AC0005B681343FB60FB6823F400623B681B6870
:104AD0001343FB60FB6823F480523B681B6913435C
:104AE000FB60FB6823F400523B685B691343FB6087
:104AF000FB6823F480423B68DB691343FB607B68FF
:104B00001B68FA685A647B68002283F83C20002303
:104B100018461437BD465DF8047B704780B483B0F7
:104B200000AF786000BF0C37BD465DF8047B70476E
:104B300080B483B000AF786000BF0C37BD465DF82D
:104B4000047B704780B582B000AF78607B68002B33
:104B500001D101233FE07B6893F83930DBB2002BB1
:104B600006D17B68002283F838207868FDF7DCF8EE
:104B70007B68242283F839207B681B68DA687B68AD
:104B80001B6822F40052DA60786800F045FB7B680D
:104B90001B681A697B681B6822F490421A617B6863
:104BA0001B685A697B681B6822F02A025A617B687D
:104BB0001B68DA687B681B6842F40052DA607B6825
:104BC0000022DA637B68202283F839207B68202268
:104BD00083F83A20002318460837BD4680BD80B5CB
:104BE00088B002AFF860B9603B601346FB800023D9
:104BF0007B61FB6893F83930DBB2202B40F0838077
:104C0000BB68002B02D0FB88002B01D101237BE085
:104C1000FB6893F83830012B01D1022374E0FB6864
:104C2000012283F83820FB680022DA63FB68212226
:104C300083F83920FDF72CFB7861FB68FA889A84A9
:104C4000FB68FA88DA8442E0FB68DB8C9BB2013BAC
:104C50009AB2FB68DA84FB689B68B3F5805F22D167
:104C60003B6800937B6900228021F86800F068F9B6
:104C70000346002B01D0032346E0BB683B613B6940
:104C80001B881A46FB681B68C2F308025A60FB685F
:104C90001B69002B03D1BB680233BB6017E0BB6804
:104CA0000133BB6013E03B6800937B6900228021E5
:104CB000F86800F045F90346002B01D0032323E0F8
:104CC000BB685A1CBA601A78FB681B685A60FB689C
:104CD000DB8C9BB2002BB7D13B6800937B69002231
:104CE0004021F86800F02CF90346002B01D0032383
:104CF0000AE0FB68202283F83920FB68002283F851
:104D00003820002300E0022318461837BD4680BD36
:104D100080B588B000AF78607B681B681B68FB615A
:104D20007B681B68DB68BB617B681B685B697B61B8
:104D300000233B610023FB60FB6903F00F033B6131
:104D40003B69002B0DD1FB6903F02003002B08D039
:104D5000BB6903F02003002B03D0786800F0DAF978
:104D6000CBE03B69002B00F0AB807B6903F00103D3
:104D7000002B05D1BB6903F49073002B00F0A080D9
:104D8000FB6903F00103002B0AD0BB6903F48073B5
:104D9000002B05D07B68DB6B43F001027B68DA6394
:104DA000FB6903F00403002B0AD07B6903F00103C5
:104DB000002B05D07B68DB6B43F002027B68DA6373
:104DC000FB6903F00203002B0AD07B6903F00103A7
:104DD000002B05D07B68DB6B43F004027B68DA6351
:104DE000FB6903F00803002B0AD07B6903F0010381
:104DF000002B05D07B68DB6B43F008027B68DA632D
:104E00007B68DB6B002B77D0FB6903F02003002B62
:104E100007D0BB6903F02003002B02D0786800F0B4
:104E200079F97B681B685B6903F04003402B0CBF7A
:104E300001230023DBB2FB607B68DB6B03F008031C
:104E4000002B02D1FB68002B31D0786800F0C2F84B
:104E50007B681B685B6903F04003402B23D17B68B0
:104E60001B685A697B681B6822F040025A617B68A4
:104E70005B6B002B13D07B685B6B214A1A657B68E8
:104E80005B6B1846FDF70FFF0346002B16D07B68BF
:104E90005B6B1B6D7A68526B104698470EE0786822
:104EA00000F044F80AE0786800F040F806E078681E
:104EB00000F03CF87B680022DA631DE000BF1BE0D5
:104EC000FB6903F08003002B08D0BB6903F080036B
:104ED000002B03D0786800F0AFF80EE0FB6903F018
:104EE0004003002B09D0BB6903F04003002B04D022
:104EF000786800F0F7F800E000BF2037BD4680BDBD
:104F00001150000880B483B000AF786000BF0C3748
:104F1000BD465DF8047B704780B483B000AF786015
:104F200000BF0C37BD465DF8047B704780B483B08A
:104F300000AF786000BF0C37BD465DF8047B70475A
:104F400080B584B000AFF860B9603B601346FB7178
:104F50002CE0BB69B3F1FF3F28D0BB69002B07D021
:104F6000FDF796F902463B68D31ABA699A421DD2F8
:104F7000FB681B68DA68FB681B6822F4D072DA6091
:104F8000FB681B685A69FB681B6822F001025A61C2
:104F9000FB68202283F83920FB68202283F83A201E
:104FA000FB68002283F8382003230FE0FB681B68AE
:104FB0001A68BB681340BA689A420CBF01230023E9
:104FC000DBB21A46FB799A42C3D000231846103749
:104FD000BD4680BD80B483B000AF78607B681B683D
:104FE000DA687B681B6822F49072DA607B681B6861
:104FF0005A697B681B6822F001025A617B68202293
:1050000083F83A2000BF0C37BD465DF8047B70473B
:1050100080B584B000AF78607B689B6BFB60FB68F9
:105020000022DA85FB680022DA84F868FFF77EFF49
:1050300000BF1037BD4680BD80B485B000AF78603A
:105040007B6893F83930DBB2212B44D17B689B68B5
:10505000B3F5805F1AD17B681B6AFB60FB681B8815
:105060001A467B681B68C2F308025A607B681B699A
:10507000002B05D17B681B6A9A1C7B681A620EE0C4
:105080007B681B6A5A1C7B681A6208E07B681B6A93
:10509000591C7A6811621A787B681B685A607B68B1
:1050A000DB8C9BB2013B9BB27A681946D184002B02
:1050B0000FD17B681B68DA687B681B6822F080026E
:1050C000DA607B681B68DA687B681B6842F0400224
:1050D000DA60002300E0022318461437BD465DF86D
:1050E000047B704780B582B000AF78607B681B6836
:1050F000DA687B681B6822F04002DA607B68202255
:1051000083F839207868FFF7FDFE0023184608373A
:10511000BD4680BD80B584B000AF78607B6893F8F1
:105120003A30DBB2222B71D17B689B68B3F5805F8C
:1051300023D17B689B6AFB607B681B69002B0ED1C7
:105140007B681B685B689BB2C3F308039AB2FB6879
:105150001A807B689B6A9A1C7B689A6229E07B684C
:105160001B685B689BB2DBB29AB2FB681A807B68F3
:105170009B6A5A1C7B689A621BE07B681B69002B48
:105180000AD17B681B6858687B689B6A591C7A68DF
:105190009162C2B21A700CE07B681B685B68DAB27D
:1051A0007B689B6A581C7968886202F07F02D2B2E1
:1051B0001A707B68DB8D9BB2013B9BB27A68194603
:1051C000D185002B20D17B681B68DA687B681B685F
:1051D00022F02002DA607B681B68DA687B681B6853
:1051E00022F48072DA607B681B685A697B681B68EE
:1051F00022F001025A617B68202283F83A20786805
:10520000FFF78AFE002302E0002300E00223184695
:105210001037BD4680BD0000B0B584B000AF7860E7
:105220007B681B681B6923F440517B68DA687B68E4
:105230001B680A431A617B689A687B681B691A437A
:105240007B685B691A437B68DB691343FB607B689F
:105250001B68DB6823F4164323F00C037A6812689A
:10526000F9680B43D3607B681B685B6923F440716A
:105270007B689A697B681B680A435A617B68DB69B3
:10528000B3F5004F40F0E4807B681B68AB4A934263
:1052900004D07B681B68AA4A93426CD1FDF7D6FF05
:1052A000024613469B0013449A001A447B685B68CD
:1052B0005B00B2FBF3F3A34AA2FB03235B091C01CF
:1052C000FDF7C4FF024613469B0013449A001A449C
:1052D0007B685B685B00B2FBF3F5FDF7B7FF024646
:1052E00013469B0013449A001A447B685B685B007A
:1052F000B2FBF3F3934AA2FB03235B09642202FB94
:1053000003F3EB1ADB0032338E4AA2FB03235B0963
:105310005B0003F4F8731C44FDF798FF0246134644
:105320009B0013449A001A447B685B685B00B2FBE5
:10533000F3F5FDF78BFF024613469B0013449A00DA
:105340001A447B685B685B00B2FBF3F37D4AA2FB07
:1053500003235B09642202FB03F3EB1ADB00323305
:10536000784AA2FB03235B0903F007027B681B68F2
:1053700022449A6054E1FDF755FF024613469B0014
:1053800013449A001A447B685B685B00B2FBF3F33A
:105390006C4AA2FB03235B091C01FDF743FF024695
:1053A00013469B0013449A001A447B685B685B00B9
:1053B000B2FBF3F5FDF736FF024613469B0013449C
:1053C0009A001A447B685B685B00B2FBF3F35D4AAA
:1053D000A2FB03235B09642202FB03F3EB1ADB004D
:1053E0003233584AA2FB03235B095B0003F4F873D2
:1053F0001C44FDF717FF024613469B0013449A0016
:105400001A447B685B685B00B2FBF3F5FDF70AFFAB
:10541000024613469B0013449A001A447B685B685B
:105420005B00B2FBF3F3474AA2FB03235B09642250
:1054300002FB03F3EB1ADB003233424AA2FB0323E5
:105440005B0903F007027B681B6822449A60E7E06F
:105450007B681B68394A934204D07B681B68384AD2
:10546000934271D1FDF7F2FE024613469B001344AE
:105470009A001A447B685B689B00B2FBF3F3314AE5
:10548000A2FB03235B091C01FDF7E0FE0246134665
:105490009B0013449A001A447B685B689B00B2FB34
:1054A000F3F5FDF7D3FE024613469B0013449A0022
:1054B0001A447B685B689B00B2FBF3F3214AA2FBB2
:1054C00003235B09642202FB03F3EB1A1B01323353
:1054D0001C4AA2FB03235B0903F0F0031C44FDF705
:1054E000B5FE024613469B0013449A001A447B689B
:1054F0005B689B00B2FBF3F5FDF7A8FE024613467E
:105500009B0013449A001A447B685B689B00B2FBC3
:10551000F3F30C4AA2FB03235B09642202FB03F3AF
:10552000EB1A1B013233074AA2FB03235B0903F08A
:105530000F027B681B6822449A6071E000100140F2
:10554000001401401F85EB51FDF76CFE0246134627
:105550009B0013449A001A447B685B689B00B2FB73
:10556000F3F3314AA2FB03235B091C01FDF75AFE4A
:10557000024613469B0013449A001A447B685B68FA
:105580009B00B2FBF3F5FDF74DFE024613469B0070
:1055900013449A001A447B685B689B00B2FBF3F3E8
:1055A000214AA2FB03235B09642202FB03F3EB1AEB
:1055B0001B0132331C4AA2FB03235B0903F0F003F7
:1055C0001C44FDF72FFE024613469B0013449A002D
:1055D0001A447B685B689B00B2FBF3F5FDF722FE83
:1055E000024613469B0013449A001A447B685B688A
:1055F0009B00B2FBF3F30C4AA2FB03235B0964227A
:1056000002FB03F3EB1A1B013233074AA2FB03230D
:105610005B0903F00F027B681B6822449A60FFE776
:1056200000BF1037BD46B0BD1F85EB51014B186858
:10563000704700BF1400002008B5074B044613B1A3
:105640000021AFF30080054B1868836A03B19847C7
:105650002046FCF7B3FC00BF00000000D084000827
:1056600070B50D4D0D4C641BA4100026A64209D147
:105670000B4D0C4C02F004FF641BA4100026A64244
:1056800005D170BD55F8043B98470136EEE755F853
:10569000043B98470136F2E7B4880008B488000854
:1056A000B4880008B888000802440346934200D139
:1056B000704703F8011BF9E72DE9FF4755EC104B44
:1056C000002D0E4619462B46BBBF05F100431D4673
:1056D00000232D230B700D9BDDF830A0914623F0A5
:1056E0002008BCBF22461446B8F1460F05D0B8F1D9
:1056F000450F00D10136022100E0032103AB0193E5
:1057000002AB009345EC104B5346324600F0ECFCE4
:10571000B8F1470F074602D119F0010F22D0B8F1B6
:10572000460F07EB060910D13B78302B0AD1002237
:10573000002320462946FBF7E7F918B9C6F1010610
:10574000CAF80060DAF800309944002200232046AD
:105750002946FBF7D9F908B1CDF80C903022039B0C
:105760004B4507D3039B0E9ADB1B3846136004B0EE
:10577000BDE8F087591C03911A70F0E7F7B50346AE
:105780000029B8BF494203F8022BB4BF2D222B22B7
:10579000092942702ADD0DF10704A4460A27A6460E
:1057A0000A4691FBF7F607FB16153035632A04F11C
:1057B000FF340EF8015C3146F1DC3031AEF1020508
:1057C00004F8011C441C294661450AD30DF1090265
:1057D000A2EB0E02654588BF00221344181A03B0DD
:1057E000F0BD11F8012B04F8012FEDE73023303123
:1057F0008370C170031DF1E72DE9F04F2DED028B91
:105800008DB00C46DDF8608016461F46054601F057
:1058100059FAD0F800A05046FAF7FAFC00230A9390
:1058200023680593D8F8003094F818B0073323F0B4
:10583000070303F10802C8F80020D3E90023C4E9F4
:105840001223D4E9128929F000430793CDF8188078
:1058500008EE100A9F4BDDE906014FF0FF32FBF71F
:1058600085F988BBDDE906019A4B4FF0FF32FBF763
:105870005FF948BB0022002340464946FBF74EF93A
:1058800010B12D2384F84330934B9448BBF1470F5C
:1058900094BF9846804603232361059B23F00402AE
:1058A00022604FF00009009733460BAA2146284694
:1058B00000F0D8F9013040F090804FF0FF300DB08B
:1058C000BDEC028BBDE8F08F42464B464046494650
:1058D000FBF74CF940B14B46002BBCBF2D2384F89D
:1058E00043307F487F4BD1E763680BF0DF020692BD
:1058F0005A1C3FD106236360059B616843F48062B4
:10590000002303930AABCDE901B309AB49EC108B3B
:10591000009322600DF123032846FFF7CDFE069B7E
:105920000999472B804608D1C81C02DB636899425D
:1059300041DDABF1020B5FFA8BFBBBF1650F20D8A9
:1059400001395A4604F150000991FFF717FF0A9AEE
:105950001318012A8146236102DC2268D20701D58F
:10596000013323619DF82330002B9CD02D2384F834
:10597000433098E7069A472ABED1002BBCD10123B9
:10598000B9E7BBF1660F18D1002963680BDD21610F
:1059900013B92268D00702D501330B442361A165F6
:1059A0004FF00009DEE713B92268D20701D50233B0
:1059B000F4E70123F2E74FF0670B0A9B994205DBFE
:1059C00023682161D807EAD54B1CE7E70029D4BF3B
:1059D000C1F1020201221344E0E723685A0507D40B
:1059E0002369424631462846B84701302CD164E746
:1059F000BBF1650F40F2E080D4E9120100220023E0
:105A0000FBF782F8002834D0374A01233146284674
:105A1000B84701303FF451AFDDE909239A4202DB78
:105A20002368D80710D518EE103A5246314628465A
:105A3000B84701303FF441AF4FF0000804F11A09B4
:105A40000A9B013B434509DC23689B0700F1058164
:105A5000E0680B9B9842B8BF184630E701234A46DE
:105A600031462846B84701303FF427AF08F1010816
:105A7000E6E7099B002B39DC1B4A01233146284607
:105A8000B84701303FF419AFDDE90923134302D1D0
:105A90002368D907D8D518EE103A52463146284621
:105AA000B84701303FF409AF4FF0000904F11A0A7A
:105AB000099B5B424B4501DC0A9B92E7012352465E
:105AC00031462846B84701303FF4F7AE09F10109E5
:105AD000EEE700BFFFFFEF7FD4840008D884000802
